:1000000019C028C027C026C025C124C023C022C0D3
:100010001CC220C01FC01EC01DC01CC01BC01AC0F7
:1000200019C018C017C016C015C053C013C012C0E5
:1000300011C010C011241FBECFEFD4E0DEBFCDBF72
:1000400021E0A0E0B1E001C01D92A933B207E1F7C1
:100050003CD1D2C2D5CF20912A0130912B01280F5B
:10006000391F30932B0120932A01280F391F220FAB
:10007000331F3595279535952795359527952F3F2E
:10008000310541F03CF08FEF90E090933801809380
:1000900037010BC033232CF0309338012093370104
:1000A00004C010923801109237018091370187BD4A
:1000B0000895E0ECF0E080818823ECF78091C600A1
:1000C0000895E0ECF0E0908195FFFDCF8093C600AD
:1000D00008951F920F920FB60F9211240F900FBE2A
:1000E0000F901F9018958FB7F8942091840030914D
:1000F00085008FBF822F932F08952FB7F894909388
:100100008500809384002FBF0895AF92BF92CF9255
:10011000DF92EF92FF920F931F93CF93DF93161608
:100120001706FCF02FC0DF01C191D19140815181B0
:100130004C175D0750F44D915C911197C081D181AE
:100140001196DC93CE93518340832F5F3F4F20174E
:10015000310749F72FEFE21AF20AE616F70659F4CB
:1001600011C0E12CF12C6B0121E0C21AD1088B01E6
:10017000AA24A394B12C1C141D0464F7E82FF92FB2
:100180009501D1CFDF91CF911F910F91FF90EF900B
:10019000DF90CF90BF90AF9008959C01295C31090A
:1001A00020343C4308F055C020910E0130910F01DE
:1001B000820F931F90930F0180930E018091020193
:1001C0009091030101968430910529F090930301E9
:1001D0008093020108951092030110920201209170
:1001E0000E0130910F01369527953695279530935E
:1001F0001B0120931A0110920F0110920E018091A1
:10020000000190910101FC01EE0FFF1FEC5FFE4F1A
:10021000318320830196909301018093000105971B
:10022000C1F465E070E084E091E06FDF20910801A7
:100230003091090140E050E06DE271E381E090E02F
:100240005BD1309319012093180110920101109293
:10025000000108951F920F920FB60F9211242F9351
:100260003F934F935F936F937F938F939F93AF933E
:10027000BF93EF93FF9337DF90932601809325017F
:1002800080E090E03ADF809125019091260185DFA2
:10029000FF91EF91BF91AF919F918F917F916F915E
:1002A0005F914F913F912F910F900FBE0F901F9034
:1002B000189582E08093B100E0E7F0E080818460EF
:1002C000808384EF8093B40008951092C50089E183
:1002D0008093C4008AB1826C8AB987B18F7C87B958
:1002E000E8E6F0E0808182608083ECE6F0E08081E7
:1002F0008063808382E480937C0088E880937A0026
:1003000084E080937E0088E18093C10086E0809342
:10031000C20083EC84BD85B5816085BD17BC18BC67
:10032000C8DF7894E1E8F0E080818260808387E034
:100330008093B100812C912C0F2EF0E1CF2EF1E0B3
:10034000DF2EF02D0F2EF4E67F2EF02DC2E1D1E04E
:100350000F2EF4E1EF2EF1E0FF2EF02D00E010E083
:100360000F2EF3E2AF2EF1E0BF2EF02D14C0A1DE70
:100370008114910411F480933601F401EE0FFF1FF4
:10038000E05FFE4F992787FD9095C097918380830A
:100390008FEF881A980A93E08916910444F3F601C6
:1003A00080819181789E9001799E300D1124888101
:1003B0009981880F991FAC01440F551F440F551F99
:1003C000840F951F820F931FF70120813181820FC7
:1003D000931F9C012A5031092F36310548F41093A0
:1003E0002B0100932A0190931D0180931C011FC0D3
:1003F000809136018337D9F48BB180588BB98091C5
:100400001801909119014AE050E06EE171E0B1D01D
:100410000F2EFEE18F2EF1E09F2EF02DF401819141
:100420004F014FDE8A149B04C9F780E24ADE83ED58
:1004300090E30197F1F700C000004801ACCFEAE774
:10044000F0E080818064808308951F920F920FB640
:100450000F9211242F933F934F935F936F937F934A
:100460008F939F93AF93BF93EF93FF938091780007
:10047000909179000024880F991F001C880F991F04
:10048000001C892F902D9C01220F331F880F991F6C
:10049000880F991F880F991F820F931F9695879534
:1004A00096958795969587950997909335018093B2
:1004B0003401C5DF40911C0150911D0120911801AC
:1004C000309119018091340190913501840F951F6D
:1004D000821B930BC0DDFF91EF91BF91AF919F9174
:1004E0008F917F916F915F914F913F912F910F90DD
:1004F0000FBE0F901F901895052E97FB16F40094D1
:1005000006D057FD0CD013D007FC09D07EF490958F
:100510008095709561957F4F8F4F9F4F08955095AF
:100520004095309521953F4F4F4F5F4F0895A1E281
:100530001A2EAA1BBB1BFD010DC0AA1FBB1FEE1F5D
:10054000FF1FA217B307E407F50720F0A21BB30BA8
:10055000E40BF50B661F771F881F991F1A9469F724
:1005600060957095809590959B01AC01BD01CF0180
:100570000895FB019F01E8944230BCF04532ACF491
:100580004A3029F497FB1EF4909581959F4F642F74
:1005900077271ED0805D8A330CF0895D8193CB0173
:1005A0000097A9F716F45DE251931082C90100C0CB
:1005B000DC01FC01672F71917723E1F7329704C0CA
:1005C0007C916D9370836291AE17BF07C8F3089555
:1005D000AA1BBB1B51E107C0AA1FBB1FA617B70769
:1005E00010F0A61BB70B881F991F5A95A9F7809585
:0C05F0009095BC01CD010895F894FFCF58
:00000001FF
