:1000000019C020C01FC01EC01DC01CC01BC01AC00C
:1000100019C018C017C016C015C014C013C012C034
:1000200011C010C00FC00EC00DC00CC00BC00AC064
:1000300009C008C011241FBECFEFD4E0DEBFCDBF82
:1000400002D024C0DDCF519A1092C50089E180937F
:10005000C40088E08093C10086E08093C200E6EC93
:10006000F0E091E380E390838083A3ECB9E0119703
:10007000F1F700C000008083BFE32DE033E0B15012
:1000800020403040E1F700C00000EDCFF894FFCFF2
:00000001FF
