:1000000019C028C027C026C045C024C023C022C0B4
:1000100021C020C01FC01EC01DC01CC01BC01AC0F4
:1000200019C018C017C016C015C014C013C012C024
:1000300011C010C011241FBECFEFD4E0DEBFCDBF72
:1000400021E0A0E0B1E001C01D92A730B207E1F7C6
:1000500002D064C0D5CF87B18F7C87B9569A209AD9
:1000600083E884BDE8E6F0E0808182608083ECE68E
:10007000F0E0808180638083789485B5836085BD5E
:100080008091040187BD83EC99E00197F1F700C0EE
:100090000000F6CF1F920F920FB60F9211248F938C
:1000A0009F9396B190729093050186B18071809371
:1000B0000601892B90E0959587959595879595955F
:1000C0008795959587959093030180930201892BDD
:1000D000B1F480910001909101018230910539F4D1
:1000E00080910401865F80930401289A08C00197DB
:1000F00031F4809104018A50809304012898809102
:1001000002019091030190930101809300019F915E
:100110008F910F900FBE0F901F901895F894FFCFFE
:00000001FF
