S020000074657374527828426C696E6B4C65647377697468312D30292E7372656367
S113000019C028C027C026C025C024C023C022C0D0
S113001021C020C01FC01EC01DC01CC01BC01AC0F0
S113002019C018C03DC016C015C014C013C012C0FA
S113003011C010C011241FBECFEFD4E0DEBFCDBF6E
S113004021E0A0E0B1E001C01D92A138B207E1F7C0
S11300500AD048C0D5CFE0ECF0E080818823ECF7EB
S11300608091C60008951092C50089E18093C40070
S113007088E18093C10086E08093C20081E884B95E
S113008080E88AB97894E7DF813321F4289A2F9A9B
S11300905F9AF9CF8033B9F728982F985F98F3CFF8
S11300A01F920F920FB60F9211248F939F93EF9389
S11300B0FF93809100019091C600E82FF0E0EF5F7C
S11300C0FE4F90838F5F1AF08093000102C010925C
S11300D00001FF91EF919F918F910F900FBE0F90B0
S10B00E01F901895F894FFCF5E
S9030000FC
