S00C0000746573742E7372656358
S113000019C020C01FC01EC01DC01CC01BC01AC008
S113001019C018C017C016C015C014C013C012C030
S113002011C010C00FC00EC00DC00CC00BC00AC060
S113003009C008C011241FBECFEFD4E0DEBFCDBF7E
S113004002D01CC0DDCF209A279A579A5F9A289A2B
S11300502F9A8FE493EC0197F1F700C0000084B16C
S113006014B885B115B88AB11AB88BB11BB88FE42E
S113007093EC0197F1F700C00000E5CFF894FFCFAF
S9030000FC
